:020000040000FA
:04000000AFEF00F06E
:100008005A82D9CF03F0DACF04F09DA60EEF00F0A4
:1000180010EF00F055EF00F09EA615EF00F017EF77
:1000280000F055EF00F0C6BC1CEF00F01EEF00F02A
:1000380025EF00F0C6AE23EF00F025EF00F02CEF1F
:1000480000F0C9CF4EF0C69CC69EC6882CEF00F0C3
:10005800C850C918D8A433EF00F035EF00F038EFD6
:1000680000F05086C790C68850A63DEF00F03FEFDD
:1000780000F054EF00F0C950D8B445EF00F047EF56
:1000880000F054EF00F0C850C918D8B44EEF00F093
:1000980050EF00F054EF00F0C9CF4EF0C6885096EC
:1000A8009E969DA05AEF00F05CEF00F06CEF00F018
:1000B8009EA061EF00F063EF00F06CEF00F050825B
:1000C8009E90CD90FF0ECF6ECD0ECE6E6CEF00F0F1
:1000D8009DA871EF00F073EF00F0A9EF00F09EA863
:1000E80078EF00F07AEF00F0A9EF00F04F50800AA7
:1000F8007B0FD8A082EF00F084EF00F088EF00F0CB
:100108002C0EAD6E97EF00F04FC001F0026A01BEF1
:10011800020601504624D96E02504720DA6EDF509D
:10012800AD6E97EF00F04F2A4F50800A7A0FD8A093
:10013800A0EF00F0A2EF00F0A9EF00F09D98000EEC
:100148004F6EA9EF00F0A9EF00F004C0DAFF03C07A
:10015800D9FF5A921100F2EF05F067CF56F0576AAF
:100168005650576E566A6650561256C023F057C0FE
:1001780024F0231E241E234A242A585023244C6E7C
:10018800595024204D6E4CC005F04DC006F0000EAD
:10019800086E320E076EABEC05F005C023F006C002
:1001A80024F0000E24BEFF0E256E266E2350422634
:1001B80024504322255044222650452242C011F0A3
:1001C80043C012F044C013F045C014F0E80E156E99
:1001D800030E166E000E176E000E186E05EC02F078
:1001E80011C042F012C043F013C044F014C045F0EF
:1001F8004AC023F04BC024F0231E241E234A242A7D
:100208004C5023264D50242223C005F024C006F06C
:10021800000E06BEFF0E076E086E140E096E000E65
:100228000A6E000E0B6E000E0C6E72EC05F005C027
:100238003AF006C03BF007C03CF008C03DF04CC0A7
:1002480005F04DC006F0000E06BEFF0E076E086EE4
:100258002EC009F02FC00AF030C00BF031C00CF0EE
:1002680072EC05F005C023F006C024F007C025F0A5
:1002780008C026F032C005F033C006F034C007F0DD
:1002880035C008F042C009F043C00AF044C00BF082
:1002980045C00CF072EC05F005502324276E06507B
:1002A8002420286E07502520296E085026202A6E03
:1002B80036C005F037C006F038C007F039C008F07E
:1002C8003AC009F03BC00AF03CC00BF03DC00CF04E
:1002D80072EC05F0055027243E6E065028203F6E2C
:1002E80007502920406E08502A20416E3EC011F068
:1002F8003FC012F040C013F041C014F0640E156EF8
:10030800000E166E000E176E000E186E05EC02F049
:1003180011C03EF012C03FF013C040F014C041F0CD
:100328004CC04AF04DC04BF041BE9FEF01F09DEF2D
:1003380001F0B0EF01F050903E1C3E6E3F1C3F6E46
:10034800401C406E411C416E010E3E26000E3F22AD
:1003580040224122B3EF01F05080B3EF01F041BEDB
:10036800C2EF01F0415040100BE19D0E3E5C180EAB
:100378003F58D8A0C2EF01F0C4EF01F0CEEF01F072
:100388009C0E3E6E180E3F6E000E406E000E416EC3
:10039800CEEF01F03EC005F03FC006F040C007F0C8
:1003A80041C008F0FE0E096E030E0A6E000E0B6EB9
:1003B800000E0C6E72EC05F005C011F006C012F0CC
:1003C80007C013F008C014F09C0E156E180E166EB8
:1003D800000E176E000E186E05EC02F011C03EF00C
:1003E80012C03FF013C040F014C041F03EC01FF0EF
:1003F8003FC020F040C021F041C022F004EF02F0DD
:100408001200000E1A6E18BE0EEF02F00CEF02F08A
:100418001AEF02F0181E171E161E156C000E162273
:1004280017221822010E1A6E1AEF02F014BE21EFDD
:1004380002F01FEF02F02DEF02F0141E131E121E21
:10044800116C000E122213221422010E1A1A2DEF1B
:1004580002F0000E1B6E000E1C6E000E1D6E000ECC
:100468001E6E1550161017101810D8B43EEF02F073
:1004780040EF02F082EF02F0010E196E4CEF02F02D
:10048800D8901536163617361836192A4CEF02F05A
:1004980018AE51EF02F053EF02F044EF02F057EFBD
:1004A80002F057EF02F0D8901B361C361D361E3668
:1004B8001550115C165012581750135818501458EC
:1004C800D8A069EF02F06BEF02F076EF02F015505A
:1004D800115E1650125A1750135A1850145A1B808E
:1004E80076EF02F0D8901832173216321532192EDC
:1004F80057EF02F082EF02F082EF02F01A50D8B400
:1005080088EF02F08AEF02F094EF02F01E1E1D1E23
:100518001C1E1B6C000E1C221D221E2294EF02F0D2
:100528001BC011F01CC012F01DC013F01EC014F047
:100538009EEF02F01200000E0A6E08BEA8EF02F04D
:10054800A6EF02F0B0EF02F0076C081ED8B0082A38
:10055800010E0A6EB0EF02F006BEB7EF02F0B5EF7B
:1005680002F0BFEF02F0056C061ED8B0062A010E95
:100578000A1ABFEF02F0000E0C6E000E0B6E075049
:100588000810D8B4CAEF02F0CCEF02F000EF03F085
:10059800010E096ED6EF02F0D89007360836092A00
:1005A800D6EF02F008AEDBEF02F0DDEF02F0D0EF9D
:1005B80002F0E1EF02F0E1EF02F0D8900B360C36D2
:1005C8000750055C08500658D8A0EDEF02F0EFEF91
:1005D80002F0F6EF02F00750055E0850065A0B804D
:1005E800F6EF02F0D89008320732092EE1EF02F058
:1005F80000EF03F000EF03F00A50D8B406EF03F061
:1006080008EF03F00EEF03F00B6C0C1ED8B00C2AA9
:100618000EEF03F00BC005F00CC006F014EF03F06A
:100628001200236E23C005F0066A000E086E640EE1
:10063800076E88EC03F00550226E2250056E066A9C
:10064800076A086AD00E096E200E0A6E000E0B6E3D
:10065800000E0C6E72EC05F005C011F006C012F029
:1006680007C013F008C014F0680E156E010E166E60
:10067800000E176E000E186E58EC04F011C024F02E
:1006880012C025F01B0E245C040E2558D8A04FEF8D
:1006980003F051EF03F057EF03F0040E256E1A0E26
:1006A800246E57EF03F023C005F0066A000E086EAB
:1006B800640E076E9FEC02F005500610D8A467EF91
:1006C80003F069EF03F079EF03F024C020F025C0B0
:1006D80021F0201E211E204A212A680E2024246E83
:1006E800100E2120256E81EF03F0680E2424246E5D
:1006F800100E2520256E81EF03F024C01EF025C0C2
:100708001FF087EF03F01200000E0A6E06BE91EF8D
:1007180003F08FEF03F099EF03F0056C061ED8B0D5
:10072800062A010E0A6E99EF03F008BEA0EF03F047
:100738009EEF03F0A6EF03F0076C081ED8B0082A56
:10074800A6EF03F007500810D8B4ADEF03F0AFEFF1
:1007580003F0DFEF03F0010E096EB9EF03F0D89054
:1007680007360836092AB9EF03F008AEBEEF03F0E2
:10077800C0EF03F0B3EF03F0C4EF03F0C4EF03F0EE
:100788000750055C08500658D8A0CDEF03F0CFEF0E
:1007980003F0D5EF03F00750055E0850065AD5EF71
:1007A80003F0D89008320732092EC4EF03F0DFEFC8
:1007B80003F0DFEF03F00A50D8B4E5EF03F0E7EFFA
:1007C80003F0EDEF03F0056C061ED8B0062AEDEF36
:1007D80003F005C005F006C006F0F3EF03F01200C1
:1007E800700ED36EBE0E2E6E140E2F6E000E306E6F
:1007F800000E316E5F0E326E0A0E336E000E346ECE
:10080800000E356E680E366E0A0E376E000E386EA4
:10081800000E396E13EC06F023EC06F01CEC06F023
:10082800E4EC05F0D3EC05F0FDEC05F008EC06F07F
:1008380050824E5015EC03F01EC058F01FC059F0FE
:1008480050A229EF04F02BEF04F01DEF04F05850EC
:10085800B1EC00F01FC02BF020C02CF0C0EC05F06C
:1008680050A039EF04F03BEF04F03FEF04F089901B
:10087800898243EF04F08980899243EF04F056C0DF
:100888000CF057C00DF0F8EC04F00CC046F00DC0A9
:1008980047F09D885092CD801DEF04F01DEF04F0C5
:1008A8001DEF04F0AFEF00F0000E196E000E1A6E87
:1008B800000E1B6E000E1C6E155016101710181027
:1008C800D8B469EF04F06BEF04F0ABEF04F0010E5D
:1008D8001D6E77EF04F0D890153616361736183691
:1008E8001D2A77EF04F018AE7CEF04F07EEF04F0D9
:1008F8006FEF04F082EF04F082EF04F0D89019361D
:100908001A361B361C361550115C165012581750E3
:10091800135818501458D8A094EF04F096EF04F028
:10092800A1EF04F01550115E1650125A1750135AC1
:100938001850145A1980A1EF04F0D89018321732C1
:10094800163215321D2E82EF04F0ABEF04F019C0F9
:1009580011F01AC012F01BC013F01CC014F01200E2
:10096800000E0A6E000E096E07500810D8B4BFEFCB
:1009780004F0C1EF04F0F3EF04F0010E0B6ECBEFBF
:1009880004F0D890073608360B2ACBEF04F008AEEF
:10099800D0EF04F0D2EF04F0C5EF04F0D6EF04F086
:1009A800D6EF04F0D89009360A360750055C08508F
:1009B8000658D8A0E2EF04F0E4EF04F0EBEF04F0FF
:1009C8000750055E0850065A0980EBEF04F0D890EE
:1009D800083207320B2ED6EF04F0F3EF04F009C00B
:1009E80005F00AC006F012000CC00EF00DC00FF0A2
:1009F800040E106E26EF05F01050010D510EF32471
:100A0800D96E000EF420DA6E0EC005F00FC006F0A5
:100A1800000E086E0A0E076E36EC05F00550300F12
:100A2800DF6E0EC005F00FC006F0000E086E0A0E4D
:100A3800076EB4EC04F005C00EF006C00FF0100607
:100A480026EF05F010BE2DEF05F02BEF05F000EFB7
:100A580005F02FEF05F0510E0C6E000E0D6E35EF00
:100A680005F0120007500810D8B43DEF05F03FEF2D
:100A780005F06DEF05F0010E096E49EF05F0D8900D
:100A880007360836092A49EF05F008AE4EEF05F09B
:100A980050EF05F043EF05F054EF05F054EF05F083
:100AA8000750055C08500658D8A05DEF05F05FEFC9
:100AB80005F065EF05F00750055E0850065A65EF2A
:100AC80005F0D89008320732092E54EF05F06DEF83
:100AD80005F005C005F006C006F01200000E0D6E08
:100AE800000E0E6E000E0F6E000E106E7CEF05F0FD
:100AF80005A081EF05F083EF05F08DEF05F00950B3
:100B08000D260A500E220B500F220C5010228DEF8A
:100B180005F0D89009360A360B360C36D8900832CC
:100B28000732063205320550061007100810D8A4FF
:100B3800A0EF05F0A2EF05F07CEF05F00DC005F081
:100B48000EC006F00FC007F010C008F012000550E4
:100B58000702F3CF09F0F4CF0AF005500802F3506A
:100B68000A2606500702F3500A2609C005F00AC0F3
:100B780006F0BFEF05F012002BC02DF0030E2D1666
:100B88002D3ABD502D18CF0B2D18BD6ED8902C3294
:100B98002B32D8902C322B322BC0BEFF12009288F9
:100BA800928A680E666E100E676E100E576E680E8B
:100BB800566ED00E646E200E656E980EB66E1200DC
:100BC80094948B940F0EBD6E040ECA6ECB68000E03
:100BD8002C6E000E2B6EC0EC05F0120000EE2EF00D
:100BE800280EEE6AE806FDE15A905A920001F4EFE9
:100BF80003F0509C949C200EAC6E900EAB6E000ED1
:100C0800AA6E0C0EAF6E12009E909D809F809D86EE
:100C18009F869D989F889E98D08EF28E1200000E17
:100C2800B86E000EB96E92909292899089821200E5
:100C3800F90ECD6EFF0ECF6ECD0ECE6E1200948AD9
:0C0C48009488360EC66E800EC86E120036
:020000040020DA
:08000000FFFFFFFFFFFFFFFF00
:020000040030CA
:0E000000FFCC0F3E3C9981FF0FC00FE00F4078
:00000001FF
