:020000040000FA
:0400000073EF00F0AA
:100008005B82D9CF31F0DACF32F0A3A00EEF00F047
:1000180010EF00F019EF00F0A4A015EF00F017EFB3
:1000280000F019EF00F0A49027869DA01EEF00F0C5
:1000380020EF00F030EF00F09EA025EF00F027EF52
:1000480000F030EF00F027829E90CD90FF0ECF6E2B
:10005800CD0ECE6E30EF00F09DA835EF00F037EFF3
:1000680000F06DEF00F09EA83CEF00F03EEF00F0CE
:100078006DEF00F02550800A7B0FD8A046EF00F006
:1000880048EF00F04CEF00F02C0EAD6E5BEF00F087
:1000980025C02FF0306A2FBE30062F501B24D96E92
:1000A80030501C20DA6EDF50AD6E5BEF00F0252A71
:1000B8002550800A7A0FD8A064EF00F066EF00F0B0
:1000C8006DEF00F09D98000E256E6DEF00F06DEF5E
:1000D80000F032C0DAFF31C0D9FF5B9211002AEF7D
:1000E80004F027B67AEF00F07CEF00F09EEF00F006
:1000F800000E2E6E000E2D6E69CF2DF02E6A2D503B
:100108002E6E2D6A68502D121C0E336EB80E346E8A
:10011800080E356E000E366E2DC037F02EC038F042
:10012800396A3A6AD7EC02F033C02DF034C02EF0A9
:10013800A5EF00F0000E2E6E000E2D6E2796A5EF8F
:1001480000F02DC051F02EC052F0511E521E514ADF
:10015800522A59505124216E5A505220226E21C0E1
:1001680033F022C034F0000E34BEFF0E356E366E0A
:10017800320E376E000E386E000E396E000E3A6E73
:10018800F1EC03F033C03FF034C040F035C041F02B
:1001980036C042F0E80E436E030E446E000E456E04
:1001A800000E466EDFEC01F03F5015264050162237
:1001B80041501722425018221FC051F020C052F05F
:1001C800511E521E514A522A215051262250522263
:1001D80051C033F052C034F0000E34BEFF0E356EFD
:1001E800366E140E376E000E386E000E396E000E25
:1001F8003A6EF1EC03F033C00DF034C00EF035C0A8
:100208000FF036C010F021C033F022C034F0000ED9
:1002180034BEFF0E356E366E01C037F002C038F0BE
:1002280003C039F004C03AF0F1EC03F033C051F0E8
:1002380034C052F035C053F036C054F005C033F026
:1002480006C034F007C035F008C036F015C037F0E6
:1002580016C038F017C039F018C03AF0F1EC03F0C6
:1002680033505124556E34505220566E3550532019
:10027800576E36505420586E09C033F00AC034F017
:100288000BC035F00CC036F00DC037F00EC038F09A
:100298000FC039F010C03AF0F1EC03F03350552498
:1002A800116E34505620126E35505720136E36504A
:1002B8005820146E11C03FF012C040F013C041F036
:1002C80014C042F00A0E436E000E446E000E456ED6
:1002D800000E466EDFEC01F03FC011F040C012F096
:1002E80041C013F042C014F021C01FF022C020F01A
:1002F80014BE83EF01F081EF01F08DEF01F0000EE5
:10030800116E000E126E000E136E000E146E8DEF3D
:1003180001F014BE9CEF01F0145013100BE1210EF4
:10032800115C030E1258D8A09CEF01F09EEF01F06B
:10033800A8EF01F0200E116E030E126E000E136E60
:10034800000E146EA8EF01F011C033F012C034F0A3
:1003580013C035F014C036F0FE0E376E030E386E3B
:10036800000E396E000E3A6EF1EC03F033C03FF028
:1003780034C040F035C041F036C042F0200E436E24
:10038800030E446E000E456E000E466EDFEC01F063
:100398003FC011F040C012F041C013F042C014F049
:1003A80011C04DF012C04EF013C04FF014C050F001
:1003B800DEEF01F01200000E486E46BEE8EF01F0D5
:1003C800E6EF01F0F4EF01F0461E451E441E436CB3
:1003D800000E442245224622010E486EF4EF01F039
:1003E80042BEFBEF01F0F9EF01F007EF02F0421E09
:1003F800411E401E3F6C000E402241224222010E47
:10040800481A07EF02F0000E496E000E4A6E000E01
:100418004B6E000E4C6E4350441045104610D8B435
:1004280018EF02F01AEF02F05CEF02F0010E476ECF
:1004380026EF02F0D8904336443645364636472AEA
:1004480026EF02F046AE2BEF02F02DEF02F01EEF82
:1004580002F031EF02F031EF02F0D89049364A3617
:100468004B364C3643503F5C4450405845504158F9
:1004780046504258D8A043EF02F045EF02F050EF43
:1004880002F043503F5E4450405A4550415A46504E
:10049800425A498050EF02F0D890463245324432F1
:1004A8004332472E31EF02F05CEF02F05CEF02F0CE
:1004B8004850D8B462EF02F064EF02F06EEF02F039
:1004C8004C1E4B1E4A1E496C000E4A224B224C22DF
:1004D8006EEF02F049C03FF04AC040F04BC041F017
:1004E8004CC042F078EF02F01200700ED36ED70EB7
:1004F800016EBB0E026E000E036E000E046E780EC7
:10050800056EFA0E066E000E076E000E086E5A0E85
:10051800096E000E0A6E000E0B6E000E0C6E8AEC51
:1005280004F093EC04F064EC04F055EC04F07FEC78
:1005380004F073EC04F02780000E0001636FA5EF50
:1005480002F027A2AAEF02F0ACEF02F0A5EF02F04A
:10055800595075EC00F04DC060F04EC061F041ECB0
:1005680004F02DC03AF02EC03BF077EC03F03AC00F
:100578001BF03BC01CF09D8827A0C5EF02F0C7EF19
:1005880002F0CBEF02F089908982CDEF02F08980EA
:1005980089922792CD80A5EF02F0A5EF02F0A5EF92
:1005A80002F073EF00F0000E3B6E000E3C6E000E82
:1005B8003D6E000E3E6E3750381039103A10D8B4E0
:1005C800E8EF02F0EAEF02F02AEF03F0010E3F6EC7
:1005D800F6EF02F0D8903736383639363A363F2AB1
:1005E800F6EF02F03AAEFBEF02F0FDEF02F0EEEFAD
:1005F80002F001EF03F001EF03F0D8903B363C36F0
:100608003D363E363750335C3850345839503558BB
:100618003A503658D8A013EF03F015EF03F020EF47
:1006280003F03750335E3850345A3950355A3A50FF
:10063800365A3B8020EF03F0D8903A3239323832BC
:1006480037323F2E01EF03F02AEF03F03BC033F0BF
:100658003CC034F03DC035F03EC036F01200000E0C
:10066800396E000E386E35503610D8B43EEF03F0B0
:1006780040EF03F072EF03F0010E376E4AEF03F01C
:10068800D89035363636372A4AEF03F036AE4FEF74
:1006980003F051EF03F044EF03F055EF03F055EF8B
:1006A80003F0D890383639363550335C36503458E4
:1006B800D8A061EF03F063EF03F06AEF03F0355061
:1006C800335E3650345A38806AEF03F0D8903632A9
:1006D8003532372E55EF03F072EF03F038C033F0A0
:1006E80039C034F012003AC03CF03BC03DF0040E73
:1006F8003E6EA5EF03F03E50010D280EF324D96E8F
:10070800000EF420DA6E3CC033F03DC034F0000E29
:10071800366E0A0E356EB5EC03F03350300FDF6ECF
:100728003CC033F03DC034F0000E366E0A0E356E14
:1007380033EC03F033C03CF034C03DF03E06A5EF87
:1007480003F03EBEACEF03F0AAEF03F07FEF03F037
:10075800AEEF03F0280E3A6E000E3B6EB4EF03F0D6
:10076800120035503610D8B4BCEF03F0BEEF03F0DA
:10077800ECEF03F0010E376EC8EF03F0D890353672
:100788003636372AC8EF03F036AECDEF03F0CFEF99
:1007980003F0C2EF03F0D3EF03F0D3EF03F03550CB
:1007A800335C36503458D8A0DCEF03F0DEEF03F0AA
:1007B800E4EF03F03550335E3650345AE4EF03F07B
:1007C800D89036323532372ED3EF03F0ECEF03F002
:1007D80033C033F034C034F01200000E3B6E000E0C
:1007E8003C6E000E3D6E000E3E6EFBEF03F033A034
:1007F80000EF04F002EF04F00CEF04F037503B2652
:1008080038503C2239503D223A503E220CEF04F039
:10081800D8903736383639363A36D8903632353277
:10082800343233323350341035103610D8A41FEF19
:1008380004F021EF04F0FBEF03F03BC033F03CC0C1
:1008480034F03DC035F03EC036F01200340EF66E7E
:10085800090EF76E000EF86E0900F5CF59F0090081
:10086800F5CF5AF000EE01F02E0EEE6AE806FDE133
:100878005B905B92000179EF02F060C062F0030EBA
:1008880000016217623BBD506219CF0B6219BD6E41
:10089800D89061336033D8906133603360C0BEFF55
:1008A8001200000E686E000E696E9288928A800EA1
:1008B800B76E190EB66E90689168638CB780120097
:1008C80094948B940F0EBD6E040ECA6ECB68000E06
:1008D8000001616F000E606F41EC04F012009E9001
:1008E8009D809F80A490A380A5809D989F889E98B6
:1008F800D08EF28E12002798949C200EAC6E900E2B
:10090800AB6E000EAA6E0C0EAF6E1200000EB86E23
:10091800000EB96E92909292899089821200F90E17
:0E092800CD6ECF0ECF6E2B0ECE6E120058028B
:020000040020DA
:08000000FFFFFFFFFFFFFFFF00
:020000040030CA
:0E000000FFCC0F3E3C9D81FF0FC00FE00F4074
:00000001FF
