:020000040000FA
:04000000BFEF00F05E
:100008005A82D9CF03F0DACF04F09DA60EEF00F0A4
:1000180010EF00F055EF00F09EA615EF00F017EF77
:1000280000F055EF00F0C6BC1CEF00F01EEF00F02A
:1000380025EF00F0C6AE23EF00F025EF00F02CEF1F
:1000480000F0C9CF4EF0C69CC69EC6882CEF00F0C3
:10005800C850C918D8A433EF00F035EF00F038EFD6
:1000680000F05086C790C68850A63DEF00F03FEFDD
:1000780000F054EF00F0C950D8B445EF00F047EF56
:1000880000F054EF00F0C850C918D8B44EEF00F093
:1000980050EF00F054EF00F0C9CF4EF0C6885096EC
:1000A8009E96A3A05AEF00F05CEF00F065EF00F019
:1000B800A4A061EF00F063EF00F065EF00F0A490FA
:1000C800508A9DA06AEF00F06CEF00F07CEF00F022
:1000D8009EA071EF00F073EF00F07CEF00F050820B
:1000E8009E90CD90FF0ECF6ECD0ECE6E7CEF00F0C1
:1000F8009DA881EF00F083EF00F0B9EF00F09EA813
:1001080088EF00F08AEF00F0B9EF00F04F50800A56
:100118007B0FD8A092EF00F094EF00F098EF00F07A
:100128002C0EAD6EA7EF00F04FC001F0026A01BEC1
:10013800020601504624D96E02504720DA6EDF507D
:10014800AD6EA7EF00F04F2A4F50800A7A0FD8A063
:10015800B0EF00F0B2EF00F0B9EF00F09D98000E9C
:100168004F6EB9EF00F0B9EF00F004C0DAFF03C03A
:10017800D9FF5A921100EAEF04F050BAC6EF00F026
:10018800C8EF00F0EAEF00F0000E576E000E566E52
:1001980069CF56F0576A5650576E566A68505612CD
:1001A8001C0E056EB80E066E080E076E000E086E61
:1001B80056C009F057C00AF00B6A0C6A29EC03F024
:1001C80005C056F006C057F0F1EF00F0000E576E6C
:1001D800000E566E509AF1EF00F056C023F057C04B
:1001E80024F0231E241E234A242A585023244C6E0C
:1001F800595024204D6E4CC005F04DC006F0000E3D
:1002080006BEFF0E076E086E320E096E000E0A6EED
:10021800000E0B6E000E0C6E43EC04F005C011F0DE
:1002280006C012F007C013F008C014F0E80E156EEF
:10023800030E166E000E176E000E186E2BEC02F0F1
:100248001150422612504322135044221450452282
:100258004AC023F04BC024F0231E241E234A242A1C
:100268004C5023264D50242223C005F024C006F00C
:10027800000E06BEFF0E076E086E140E096E000E05
:100288000A6E000E0B6E000E0C6E43EC04F005C0F7
:100298003AF006C03BF007C03CF008C03DF04CC047
:1002A80005F04DC006F0000E06BEFF0E076E086E84
:1002B8002EC009F02FC00AF030C00BF031C00CF08E
:1002C80043EC04F005C023F006C024F007C025F075
:1002D80008C026F032C005F033C006F034C007F07D
:1002E80035C008F042C009F043C00AF044C00BF022
:1002F80045C00CF043EC04F005502324276E06504B
:100308002420286E07502520296E085026202A6EA2
:1003180036C005F037C006F038C007F039C008F01D
:100328003AC009F03BC00AF03CC00BF03DC00CF0ED
:1003380043EC04F0055027243E6E065028203F6EFB
:1003480007502920406E08502A20416E3EC011F007
:100358003FC012F040C013F041C014F00A0E156EF1
:10036800000E166E000E176E000E186E2BEC02F0C3
:1003780011C03EF012C03FF013C040F014C041F06D
:100388004CC04AF04DC04BF041BECFEF01F0CDEF6D
:1003980001F0D9EF01F0000E3E6E000E3F6E000E28
:1003A800406E000E416ED9EF01F041BEE8EF01F05A
:1003B800415040100BE1210E3E5C030E3F58D8A07F
:1003C800E8EF01F0EAEF01F0F4EF01F0200E3E6EE5
:1003D800030E3F6E000E406E000E416EF4EF01F00A
:1003E8003EC005F03FC006F040C007F041C008F02D
:1003F800FE0E096E030E0A6E000E0B6E000E0C6EDA
:1004080043EC04F005C011F006C012F007C013F069
:1004180008C014F0200E156E030E166E000E176E2F
:10042800000E186E2BEC02F011C03EF012C03FF027
:1004380013C040F014C041F03EC01FF03FC020F090
:1004480040C021F041C022F02AEF02F01200000E55
:100458001A6E18BE34EF02F032EF02F040EF02F0ED
:10046800181E171E161E156C000E162217221822AB
:10047800010E1A6E40EF02F014BE47EF02F045EF8E
:1004880002F053EF02F0141E131E121E116C000E20
:10049800122213221422010E1A1A53EF02F0000E30
:1004A8001B6E000E1C6E000E1D6E000E1E6E15508B
:1004B800161017101810D8B464EF02F066EF02F0A7
:1004C800A8EF02F0010E196E72EF02F0D8901536FF
:1004D800163617361836192A72EF02F018AE77EF6B
:1004E80002F079EF02F06AEF02F07DEF02F07DEFA3
:1004F80002F0D8901B361C361D361E361550115C7E
:10050800165012581750135818501458D8A08FEF77
:1005180002F091EF02F09CEF02F01550115E1650B8
:10052800125A1750135A1850145A1B809CEF02F095
:10053800D8901832173216321532192E7DEF02F084
:10054800A8EF02F0A8EF02F01A50D8B4AEEF02F00C
:10055800B0EF02F0BAEF02F01E1E1D1E1C1E1B6C2F
:10056800000E1C221D221E22BAEF02F01BC011F041
:100578001CC012F01DC013F01EC014F0C4EF02F02E
:100588001200700ED36ED70E2E6EBB0E2F6E000E9D
:10059800306E000E316E780E326EFA0E336E000E2B
:1005A800346E000E356E5A0E366E000E376E000E23
:1005B800386E000E396E00EC05F009EC05F0CEEC53
:1005C80004F0BFEC04F010EC05F0F5EC04F0DCEC02
:1005D80004F05080F0EF02F04E507CEC04F005C0BF
:1005E80058F006C059F050A2FCEF02F0FEEF02F0FE
:1005F800F0EF02F05850C1EC00F01FC02BF020C003
:100608002CF0ACEC04F056C00CF057C00DF0C9EC5F
:1006180003F00CC046F00DC047F09D8850A017EFBE
:1006280003F019EF03F01DEF03F0898089921FEFA3
:1006380003F0899089825092CD80F0EF02F0F0EFBC
:1006480002F0F0EF02F0BFEF00F0000E0D6E000EAA
:100658000E6E000E0F6E000E106E09500A100B1071
:100668000C10D8B43AEF03F03CEF03F07CEF03F042
:10067800010E116E48EF03F0D89009360A360B3692
:100688000C36112A48EF03F00CAE4DEF03F04FEF94
:1006980003F040EF03F053EF03F053EF03F0D8906B
:1006A8000D360E360F3610360950055C0A500658BE
:1006B8000B5007580C500858D8A065EF03F067EFA7
:1006C80003F072EF03F00950055E0A50065A0B500A
:1006D800075A0C50085A0D8072EF03F0D8900C326C
:1006E8000B320A320932112E53EF03F07CEF03F07C
:1006F8000DC005F00EC006F00FC007F010C008F0DE
:100708001200000E0A6E000E096E07500810D8B4C9
:1007180090EF03F092EF03F0C4EF03F0010E0B6EBD
:100728009CEF03F0D890073608360B2A9CEF03F0AD
:1007380008AEA1EF03F0A3EF03F096EF03F0A7EFE5
:1007480003F0A7EF03F0D89009360A360750055C86
:1007580008500658D8A0B3EF03F0B5EF03F0BCEF8C
:1007680003F00750055E0850065A0980BCEF03F0F5
:10077800D890083207320B2EA7EF03F0C4EF03F02E
:1007880009C005F00AC006F012000CC00EF00DC03A
:100798000FF0040E106EF7EF03F01050010D510E1C
:1007A800F324D96E000EF420DA6E0EC005F00FC0E7
:1007B80006F0000E086E0A0E076E07EC04F00550EE
:1007C800300FDF6E0EC005F00FC006F0000E086E89
:1007D8000A0E076E85EC03F005C00EF006C00FF098
:1007E8001006F7EF03F010BEFEEF03F0FCEF03F086
:1007F800D1EF03F000EF04F0510E0C6E000E0D6EF9
:1008080006EF04F0120007500810D8B40EEF04F0F9
:1008180010EF04F03EEF04F0010E096E1AEF04F039
:10082800D89007360836092A1AEF04F008AE1FEFE9
:1008380004F021EF04F014EF04F025EF04F025EFA5
:1008480004F00750055C08500658D8A02EEF04F0B5
:1008580030EF04F036EF04F00750055E0850065AF2
:1008680036EF04F0D89008320732092E25EF04F04D
:100878003EEF04F005C005F006C006F01200000EB9
:100888000D6E000E0E6E000E0F6E000E106E4DEF08
:1008980004F005A052EF04F054EF04F05EEF04F00A
:1008A80009500D260A500E220B500F220C50102210
:1008B8005EEF04F0D89009360A360B360C36D8901D
:1008C80008320732063205320550061007100810A4
:1008D800D8A471EF04F073EF04F04DEF04F00DC0ED
:1008E80005F00EC006F00FC007F010C008F01200A7
:1008F800076E07500A0DF3CF08F0F4CF09F009503E
:1009080007E10B0E085CD8B08CEF04F08EEF04F012
:1009180094EF04F0000E096E000E086E94EF04F0D8
:10092800210E085C030E0958D8A09DEF04F09FEF34
:1009380004F0A5EF04F0030E096E200E086EA5EF73
:1009480004F008C005F009C006F0ABEF04F012008F
:100958002BC02DF0030E2D162D3ABD502D18CF0BA0
:100968002D18BD6ED8902C322B32D8902C322B32C9
:100978002BC0BEFF1200000E686E000E696E9288D2
:10098800928A800EB76E190EB66E90689168638C65
:10099800B780120094948B940F0EBD6E040ECA6E2D
:1009A800CB68000E2C6E000E2B6EACEC04F012001F
:1009B8009E909D809F80A490A380A5809D869F8601
:1009C8009D989F889E98D08EF28E120000EE2EF091
:1009D8002A0EEE6AE806FDE15A905A920001C5EF28
:1009E80002F0509C949C200EAC6E900EAB6E000EE4
:1009F800AA6E0C0EAF6E1200000EB86E000EB96E25
:100A080092909292899089821200F90ECD6ECF0E43
:100A1800CF6E2B0ECE6E1200948A9488360EC66E58
:060A2800460EC86E12002C
:020000040020DA
:08000000FFFFFFFFFFFFFFFF00
:020000040030CA
:0E000000FFCC0F3E3C9981FF0FC00FE00F4078
:00000001FF
